:020000040000FA
:020000008B284B
:0800080020000B195D20270008
:100010007618812000002700930120000B100B119F
:1000200009000000F401F40A2000FE308C000000FA
:100030000C1E2828F40A8C1E2828F40A0C1F2828D5
:10004000F40A0D3074060319122803148C0D1828B5
:100050000C1E28288C1E2A280C1F2C2874084E20C1
:10006000F500103A03193D287208F3007108F200F8
:100070007008F1007508F000080076140800820787
:100080003F3406345B344F3466346D347D3407348A
:100090007F346F3404343F34103408008207003456
:1000A000013402340334043405340634073408348C
:1000B0000934203400341034080003148F0DEF305D
:1000C0000F06031D69280E308F0070083F208E0038
:1000D00008001D300F06031D712871083F208E0097
:1000E00008003B300F06031D792872083F208E0060
:1000F000080077300F06031D080073083F208E00AC
:1001000008000030F0000030F1000030F200003054
:10011000F3007610080021006F30990023008F0152
:100120008C0121008F018E01F0308C002000E8301E
:100130008B00210003309500200000309500240042
:10014000F0308C002700803091008120200040306A
:0C0150008E0020000E308F001120AC2823
:020000040001F9
:02000E00E43FCD
:02001000FF3FB0
:00000001FF
