:020000040000FA
:02000000C42812
:08000800CC2820008F00F0302D
:100010008E000800080023008C018D018F01210053
:100020008F018E012100F0308D0020008F018E01A4
:1000300008000B004034793424343034193412343D
:10004000033478340034183402340334043405346F
:100050000634073408347F342100F0308D0021004D
:1000600095132000F101F30108000030F400FE3088
:100070008D0000000D08F200EE307202031997287F
:10008000DE30720203199A28BE30720203199D28CD
:100090007E3072020319B228FD308D0000000D0879
:1000A000F200ED3072020319A028DD30720203194C
:1000B000A328BD3072020319A6287D3072020319ED
:1000C000B528FB308D0000000D08F200EB30720205
:1000D0000319A928DB3072020319AC28BB30720265
:1000E0000319AF287B3072020319B828F7308D004E
:1000F00000000D08F200E73072020319BE28D73065
:10010000720203199428B73072020319C12877309C
:1001100072020319BB28F730720203198F280130CD
:10012000F400731C080035280030F100080001308D
:10013000F10008000230F10008000330F10008006F
:100140000430F10008000530F10008000630F1002D
:1001500008000730F10008000830F10008000930FD
:10016000F10008000A30F10008000B30F10008002F
:100170000C30F10008000D30F10008000E30F100E5
:1001800008000F30F100080021006F3099000430A2
:1001900095000B202C20CD28090073143520F00089
:0801A00019200A200520CD28DA
:020000040001F9
:02000E00E43FCD
:02001000FF3FB0
:00000001FF
