:020000040000FA
:02000000722864
:0800080020000B194820000044
:100010002700930120000B100B1109000000F401D0
:10002000F40A2000FE308C0000000C1E2528F40A83
:100030008C1E2528F40A0C1F2528F40A0D3074069E
:1000400003190F2803148C0D15280C1E25288C1E4F
:1000500027280C1F292874080C3A03196C28F5006E
:100060007208F3007108F2007008F1007508F000E2
:10007000080082073F3406345B344F3466346D34F5
:100080007D3407347F346F3404343F341034080037
:1000900003148F0DEF300F06031D54280E308F0010
:1000A000700839208E0008001D300F06031D5C28E3
:1000B000710839208E0008003B300F06031D6428AC
:1000C000720839208E00080077300F06031D0800E3
:1000D000730839208E000800F501F001F101F201EA
:1000E000F301080021006F30990023008F018C017B
:1000F00021008F018E01F0308C002000E8308B0051
:100100002100033095002000003095002400F030DD
:100110008C002700803091004030F0004030F1002A
:100120004030F2004030F300200040308E002000CC
:0A0130000E308F006C200E209B287B
:020000040001F9
:02000E00E43FCD
:02001000FF3FB0
:00000001FF
