:020000040000FA
:020000000528D1
:080008001A2821006F30990055
:100010002100043095002000E83041207720013095
:10002000F6000530F7000730F8000930F90001301C
:10003000FA001B2809003A2054201B287A1C0E12B3
:10004000FA1C8E127A1D0E13FA1D8E137A180E16D4
:10005000FA188E167A190E17FA198E177A1876086A
:10006000FA1877087A197808FA19790864202000B4
:100070008F00080027001608003A03190800F00056
:10008000080023008C018D018F0121008F018E015A
:100090002100F0308D0020008F018E012700F0300C
:1000A000950027009601080020000B1D08000B1189
:1000B0002000643095005E201E200800FA0D7A1E94
:1000C00008000130FA0008000B0040347934243471
:1000D0003034193412340334783400341834023490
:1000E0000334043405340634073408347F342100E3
:1000F000F0308D00210095132000F101F30108007C
:100100000030F400FE308D0000000D08F200EE30EB
:1001100072020319E228DE3072020319E528BE30AC
:1001200072020319E8287E3072020319FD28FD309F
:100130008D0000000D08F200ED3072020319EB286B
:10014000DD3072020319EE28BD3072020319F12866
:100150007D30720203190029FB308D0000000D086C
:10016000F200EB3072020319F428DB30720203193B
:10017000F728BB3072020319FA287B307202031988
:100180000329F7308D0000000D08F200E7307202FD
:1001900003190929D73072020319DF28B730720218
:1001A00003190C297730720203190629F7307202FD
:1001B0000319DA280130F400731C0800802800308D
:1001C000F10008000130F10008000230F1000800E1
:1001D0000330F10008000430F10008000530F100A0
:1001E00008000630F10008000730F1000800083070
:1001F000F10008000930F10008000A30F1000800A1
:100200000B30F10008000C30F10008000D30F10057
:0E02100008000E30F10008000F30F100080069
:020000040001F9
:02000E00E43FCD
:02001000FF3FB0
:00000001FF
