:020000040000FA
:02000000742862
:0800080020000B194B200B1C1A
:100010000C282700931B6B20000027009301200071
:100020000B100B1109000000F401F40A2000FE304F
:100030008C0000000C1E2A28F40A8C1E2A28F40AC0
:100040000C1F2A28F40A0D3074060319142803140F
:100050008C0D1A280C1E2A288C1E2C280C1F2E28CA
:1000600074083C20F5007208F3007108F200700873
:10007000F1007508F00008008207000006345B34C8
:100080004F3466346D347D3407347F346F34043438
:100090003F341034080003148F0DEF300F06031D9A
:1000A00056280E308F0070088E0008001D300F0695
:1000B000031D5D2871088E0008003B300F06031DEC
:1000C000642872088E00080077300F06031D0800B0
:1000D00073088E0008004030F0004030F1004030DE
:1000E000F2004030F300080021006F309900230037
:1000F0008F018C0121008F018E01F0308C002000D7
:10010000E8308B002100033095002000003095007E
:100110002400F0308C002700803091004030F00047
:100120004030F1004030F2004030F3002000403019
:0C0130008E0020000E308F0013209C2851
:020000040001F9
:02000E00E43FCD
:02001000FF3FB0
:00000001FF
