:020000040000FA
:02000000A62830
:0800080020000B1974200B19F4
:10001000F820270076189820F61C0221F6180521F2
:100020002000F6199014F61D90100000270093018F
:1000300020000B100B1109000000F401F40A20004D
:10004000FE308C0000000C1E3328F40A8C1E33286E
:10005000F40A0C1F3328F40A0D30740603191D2806
:1000600003148C0D23280C1E33288C1E35280C1FDE
:10007000372874086520F500103A031950287508D0
:10008000203A03195228F61C0800F611761172085E
:10009000F3007108F2007008F1007508F000080024
:1000A00076140800F9147908F606080082073F3430
:1000B00006345B344F3466346D347D3407347F341A
:1000C0006F3420343F341034080082070034013488
:1000D0000234033404340534063407340834093454
:1000E000203400341034080003148F0DEF300F0655
:1000F000031D80280E308F00700856208E000800E7
:100100001D300F06031D8828710856208E00080038
:100110003B300F06031D9028720856208E00080001
:1001200077300F06031D0800730856208E00080064
:100130000030F0000030F1000030F2000030F30039
:10014000F9017610F614F6117611080021006F30CF
:10015000990023008F018C01900121008F018E01F5
:100160009001F0308C002000E8308B00210003303B
:1001700095002000003095002400F0308C0027000E
:10018000803091009820200040308E0020000E30FA
:100190008F0090011C20CA28CE2808007008003A61
:1001A0000319D428F003CD287108003A0319DB287D
:1001B000ED20F103CD287208003A0319E228EB2064
:1001C000F203CD287308003A0319F028E920F3035D
:1001D000CD280930F2000530F1000930F0000800A8
:1001E000F6147615F6150800F9157908F6060800D4
:1001F000F6180800F80A7808FA3A031D0800F80112
:10020000CC20080020001014080020001010080066
:020000040001F9
:02000E00E43FCD
:02001000FF3FB0
:00000001FF
