:020000040000FA
:02000000A9282D
:0800080020000B1977200B19F1
:10001000FE2020000B191021270076189B20F61CCB
:100020000A21F6180D212000F6199014F61D9010E3
:1000300000002700930120000B100B1109000000A5
:10004000F401F40A2000FE308C0000000C1E36285B
:10005000F40A8C1E3628F40A0C1F3628F40A0D30D8
:1000600074060319202803148C0D26280C1E36282C
:100070008C1E38280C1F3A2874086820F500103AA6
:10008000031953287508203A03195528F61C08004F
:10009000F61176117208F3007108F2007008F10091
:1000A0007508F000080076140800F9147908F606BF
:1000B000080082073F3406345B344F3466346D34B5
:1000C0007D3407347F346F3420343F3410340800DB
:1000D0008207003401340234033404340534063416
:1000E0000734083409342034003410340800031471
:1000F0008F0DEF300F06031D83280E308F00700820
:1001000059208E0008001D300F06031D8B28710832
:1001100059208E0008003B300F06031D93287208FB
:1001200059208E00080077300F06031D0800730861
:1001300059208E0008000030F0000030F10000303F
:10014000F2000030F300F9017610F614F611761182
:10015000080021006F30990023008F018C0190016D
:1001600021008F018E019001F0308C002000E830DA
:100170008B00210003309500200000309500240002
:10018000F0308C002700803091009B202000403010
:100190008E0020000E308F0090011F20CD28D12826
:1001A00008007008003A0319D728F003D028710816
:1001B000003A0319DE28F020F103D0287208003A33
:1001C0000319E528EE20F203D0287308003A03193A
:1001D000F328EC20F303D0280930F2000530F100B9
:1001E0000930F0000800FA01F801F6147615F6154A
:1001F0000800F901F9157908F606080076190800D3
:10020000F6180800F80A7808FA3A031D0800F80101
:10021000CF20080020001014080020001010080053
:10022000761D0800F80A78087D3A031D0800F801D9
:10023000F920FA0A7A08053A031D0800FA019B2002
:020240000800B4
:020000040001F9
:02000E00E43FCD
:02001000FF3FB0
:00000001FF
