:020000040000FA
:0200000099283D
:0800080020000B196A200B19FE
:10001000E620270076188E2000002700930120009C
:100020000B100B1109000000F401F40A2000FE304F
:100030008C0000000C1E2A28F40A8C1E2A28F40AC0
:100040000C1F2A28F40A0D3074060319142803140F
:100050008C0D1A280C1E2A288C1E2C280C1F2E28CA
:1000600074085B20F500103A03194428203A03195C
:100070004628F61C08007208F3007108F2007008A8
:10008000F1007508F000080076140800F61C4A28F4
:10009000F6100800F614080082073F3406345B347B
:1000A0004F3466346D347D3407347F346F342034FC
:1000B0003F34103408008207003401340234033422
:1000C0000434053406340734083409342034003449
:1000D0001034080003148F0DEF300F06031D76282F
:1000E0000E308F0070084C208E0008001D300F0667
:1000F000031D7E2871084C208E0008003B300F063F
:10010000031D862872084C208E00080077300F06E9
:10011000031D080073084C208E0008000030F0001A
:100120000030F1000030F2000030F3007610F614D9
:10013000080021006F30990023008F018C0190018D
:1001400021008F018E019001F0308C002000E830FA
:100150008B00210003309500200000309500240022
:10016000F0308C002700803091008E20200040303D
:100170008E0020000E308F0090011320BD28C12872
:1001800008007008003A0319C728F003C028710856
:10019000003A0319CE28E020F103C0287208003A83
:1001A0000319D528DE20F203C0287308003A03198A
:1001B000E328DC20F303C0280930F2000530F10009
:1001C0000930F0000800200010140800F61808009C
:1001D000F80A7808FA3A031D0800F801BF20080061
:020000040001F9
:02000E00E43FCD
:02001000FF3FB0
:00000001FF
